{
  "_format": "hh-sol-artifact-1",
  "contractName": "VotingSystem",
  "sourceName": "contracts/VotingSystem.sol",
  "abi": [
    {
      "anonymous": false,
      "inputs": [
        {
          "indexed": false,
          "internalType": "address",
          "name": "admin",
          "type": "address"
        },
        {
          "indexed": false,
          "internalType": "string",
          "name": "name",
          "type": "string"
        }
      ],
      "name": "AdminRegistered",
      "type": "event"
    },
    {
      "anonymous": false,
      "inputs": [
        {
          "indexed": false,
          "internalType": "uint256",
          "name": "electionId",
          "type": "uint256"
        },
        {
          "indexed": false,
          "internalType": "uint256",
          "name": "candidateId",
          "type": "uint256"
        },
        {
          "indexed": false,
          "internalType": "string",
          "name": "name",
          "type": "string"
        }
      ],
      "name": "CandidateAdded",
      "type": "event"
    },
    {
      "anonymous": false,
      "inputs": [
        {
          "indexed": false,
          "internalType": "uint256",
          "name": "electionId",
          "type": "uint256"
        },
        {
          "indexed": false,
          "internalType": "uint256",
          "name": "totalVotes",
          "type": "uint256"
        }
      ],
      "name": "ElectionCompleted",
      "type": "event"
    },
    {
      "anonymous": false,
      "inputs": [
        {
          "indexed": false,
          "internalType": "uint256",
          "name": "electionId",
          "type": "uint256"
        },
        {
          "indexed": false,
          "internalType": "string",
          "name": "title",
          "type": "string"
        },
        {
          "indexed": false,
          "internalType": "uint256",
          "name": "startTime",
          "type": "uint256"
        },
        {
          "indexed": false,
          "internalType": "uint256",
          "name": "endTime",
          "type": "uint256"
        }
      ],
      "name": "ElectionCreated",
      "type": "event"
    },
    {
      "anonymous": false,
      "inputs": [
        {
          "indexed": false,
          "internalType": "address",
          "name": "voter",
          "type": "address"
        },
        {
          "indexed": false,
          "internalType": "uint256",
          "name": "electionId",
          "type": "uint256"
        },
        {
          "indexed": false,
          "internalType": "uint256",
          "name": "candidateId",
          "type": "uint256"
        }
      ],
      "name": "Voted",
      "type": "event"
    },
    {
      "anonymous": false,
      "inputs": [
        {
          "indexed": false,
          "internalType": "address",
          "name": "voter",
          "type": "address"
        },
        {
          "indexed": false,
          "internalType": "string",
          "name": "name",
          "type": "string"
        },
        {
          "indexed": false,
          "internalType": "string",
          "name": "cccd",
          "type": "string"
        }
      ],
      "name": "VoterRegistered",
      "type": "event"
    },
    {
      "inputs": [
        {
          "internalType": "address",
          "name": "_adminAddress",
          "type": "address"
        },
        {
          "internalType": "string",
          "name": "_name",
          "type": "string"
        }
      ],
      "name": "addAdmin",
      "outputs": [],
      "stateMutability": "nonpayable",
      "type": "function"
    },
    {
      "inputs": [
        {
          "internalType": "uint256",
          "name": "_electionId",
          "type": "uint256"
        },
        {
          "internalType": "string",
          "name": "_name",
          "type": "string"
        },
        {
          "internalType": "string",
          "name": "_description",
          "type": "string"
        },
        {
          "internalType": "string",
          "name": "_birthDate",
          "type": "string"
        },
        {
          "internalType": "string",
          "name": "_hometown",
          "type": "string"
        },
        {
          "internalType": "string",
          "name": "_position",
          "type": "string"
        },
        {
          "internalType": "string",
          "name": "_achievements",
          "type": "string"
        },
        {
          "internalType": "string",
          "name": "_motto",
          "type": "string"
        },
        {
          "internalType": "string",
          "name": "_imageUrl",
          "type": "string"
        }
      ],
      "name": "addCandidate",
      "outputs": [],
      "stateMutability": "nonpayable",
      "type": "function"
    },
    {
      "inputs": [],
      "name": "adminCount",
      "outputs": [
        {
          "internalType": "uint256",
          "name": "",
          "type": "uint256"
        }
      ],
      "stateMutability": "view",
      "type": "function"
    },
    {
      "inputs": [
        {
          "internalType": "uint256",
          "name": "",
          "type": "uint256"
        }
      ],
      "name": "adminList",
      "outputs": [
        {
          "internalType": "address",
          "name": "adminAddress",
          "type": "address"
        },
        {
          "internalType": "string",
          "name": "name",
          "type": "string"
        },
        {
          "internalType": "bool",
          "name": "isActive",
          "type": "bool"
        }
      ],
      "stateMutability": "view",
      "type": "function"
    },
    {
      "inputs": [
        {
          "internalType": "address",
          "name": "",
          "type": "address"
        }
      ],
      "name": "admins",
      "outputs": [
        {
          "internalType": "address",
          "name": "adminAddress",
          "type": "address"
        },
        {
          "internalType": "string",
          "name": "name",
          "type": "string"
        },
        {
          "internalType": "bool",
          "name": "isActive",
          "type": "bool"
        }
      ],
      "stateMutability": "view",
      "type": "function"
    },
    {
      "inputs": [
        {
          "internalType": "uint256",
          "name": "_electionId",
          "type": "uint256"
        }
      ],
      "name": "completeElection",
      "outputs": [],
      "stateMutability": "nonpayable",
      "type": "function"
    },
    {
      "inputs": [
        {
          "internalType": "string",
          "name": "_title",
          "type": "string"
        },
        {
          "internalType": "string",
          "name": "_description",
          "type": "string"
        },
        {
          "internalType": "uint256",
          "name": "_startTime",
          "type": "uint256"
        },
        {
          "internalType": "uint256",
          "name": "_endTime",
          "type": "uint256"
        },
        {
          "internalType": "string",
          "name": "_logoUrl",
          "type": "string"
        }
      ],
      "name": "createElection",
      "outputs": [],
      "stateMutability": "nonpayable",
      "type": "function"
    },
    {
      "inputs": [],
      "name": "electionCount",
      "outputs": [
        {
          "internalType": "uint256",
          "name": "",
          "type": "uint256"
        }
      ],
      "stateMutability": "view",
      "type": "function"
    },
    {
      "inputs": [
        {
          "internalType": "uint256",
          "name": "",
          "type": "uint256"
        }
      ],
      "name": "elections",
      "outputs": [
        {
          "internalType": "string",
          "name": "title",
          "type": "string"
        },
        {
          "internalType": "string",
          "name": "description",
          "type": "string"
        },
        {
          "internalType": "uint256",
          "name": "startTime",
          "type": "uint256"
        },
        {
          "internalType": "uint256",
          "name": "endTime",
          "type": "uint256"
        },
        {
          "internalType": "string",
          "name": "logoUrl",
          "type": "string"
        },
        {
          "internalType": "bool",
          "name": "isCompleted",
          "type": "bool"
        },
        {
          "internalType": "uint256",
          "name": "candidateCount",
          "type": "uint256"
        }
      ],
      "stateMutability": "view",
      "type": "function"
    },
    {
      "inputs": [
        {
          "internalType": "uint256",
          "name": "_index",
          "type": "uint256"
        }
      ],
      "name": "getAdmin",
      "outputs": [
        {
          "internalType": "address",
          "name": "",
          "type": "address"
        },
        {
          "internalType": "string",
          "name": "",
          "type": "string"
        }
      ],
      "stateMutability": "view",
      "type": "function"
    },
    {
      "inputs": [],
      "name": "getAdminCount",
      "outputs": [
        {
          "internalType": "uint256",
          "name": "",
          "type": "uint256"
        }
      ],
      "stateMutability": "view",
      "type": "function"
    },
    {
      "inputs": [
        {
          "internalType": "uint256",
          "name": "_electionId",
          "type": "uint256"
        },
        {
          "internalType": "uint256",
          "name": "_candidateId",
          "type": "uint256"
        }
      ],
      "name": "getCandidate",
      "outputs": [
        {
          "internalType": "string",
          "name": "name",
          "type": "string"
        },
        {
          "internalType": "string",
          "name": "description",
          "type": "string"
        },
        {
          "internalType": "string",
          "name": "birthDate",
          "type": "string"
        },
        {
          "internalType": "string",
          "name": "hometown",
          "type": "string"
        },
        {
          "internalType": "string",
          "name": "position",
          "type": "string"
        },
        {
          "internalType": "string",
          "name": "achievements",
          "type": "string"
        },
        {
          "internalType": "string",
          "name": "motto",
          "type": "string"
        },
        {
          "internalType": "string",
          "name": "imageUrl",
          "type": "string"
        },
        {
          "internalType": "uint256",
          "name": "voteCount",
          "type": "uint256"
        },
        {
          "internalType": "bool",
          "name": "isElected",
          "type": "bool"
        }
      ],
      "stateMutability": "view",
      "type": "function"
    },
    {
      "inputs": [
        {
          "internalType": "uint256",
          "name": "_electionId",
          "type": "uint256"
        }
      ],
      "name": "getCandidateCount",
      "outputs": [
        {
          "internalType": "uint256",
          "name": "",
          "type": "uint256"
        }
      ],
      "stateMutability": "view",
      "type": "function"
    },
    {
      "inputs": [
        {
          "internalType": "uint256",
          "name": "_electionId",
          "type": "uint256"
        }
      ],
      "name": "getElection",
      "outputs": [
        {
          "internalType": "string",
          "name": "title",
          "type": "string"
        },
        {
          "internalType": "string",
          "name": "description",
          "type": "string"
        },
        {
          "internalType": "uint256",
          "name": "startTime",
          "type": "uint256"
        },
        {
          "internalType": "uint256",
          "name": "endTime",
          "type": "uint256"
        },
        {
          "internalType": "string",
          "name": "logoUrl",
          "type": "string"
        },
        {
          "internalType": "bool",
          "name": "isCompleted",
          "type": "bool"
        },
        {
          "internalType": "uint256",
          "name": "candidateCount",
          "type": "uint256"
        }
      ],
      "stateMutability": "view",
      "type": "function"
    },
    {
      "inputs": [],
      "name": "getElectionCount",
      "outputs": [
        {
          "internalType": "uint256",
          "name": "",
          "type": "uint256"
        }
      ],
      "stateMutability": "view",
      "type": "function"
    },
    {
      "inputs": [
        {
          "internalType": "address",
          "name": "_voter",
          "type": "address"
        }
      ],
      "name": "getVoter",
      "outputs": [
        {
          "internalType": "string",
          "name": "name",
          "type": "string"
        },
        {
          "internalType": "string",
          "name": "cccd",
          "type": "string"
        },
        {
          "internalType": "string",
          "name": "voterAddress",
          "type": "string"
        },
        {
          "internalType": "uint256",
          "name": "birthDate",
          "type": "uint256"
        },
        {
          "internalType": "bool",
          "name": "isRegistered",
          "type": "bool"
        },
        {
          "internalType": "bool",
          "name": "hasVotedInAnyElection",
          "type": "bool"
        }
      ],
      "stateMutability": "view",
      "type": "function"
    },
    {
      "inputs": [
        {
          "internalType": "address",
          "name": "_voter",
          "type": "address"
        }
      ],
      "name": "getVoterHistory",
      "outputs": [
        {
          "components": [
            {
              "internalType": "uint256",
              "name": "electionId",
              "type": "uint256"
            },
            {
              "internalType": "uint256",
              "name": "candidateId",
              "type": "uint256"
            },
            {
              "internalType": "uint256",
              "name": "timestamp",
              "type": "uint256"
            }
          ],
          "internalType": "struct VotingSystem.Vote[]",
          "name": "",
          "type": "tuple[]"
        }
      ],
      "stateMutability": "view",
      "type": "function"
    },
    {
      "inputs": [
        {
          "internalType": "address",
          "name": "_voter",
          "type": "address"
        },
        {
          "internalType": "uint256",
          "name": "_electionId",
          "type": "uint256"
        }
      ],
      "name": "hasVoted",
      "outputs": [
        {
          "internalType": "bool",
          "name": "",
          "type": "bool"
        }
      ],
      "stateMutability": "view",
      "type": "function"
    },
    {
      "inputs": [
        {
          "internalType": "address",
          "name": "",
          "type": "address"
        }
      ],
      "name": "isAdmin",
      "outputs": [
        {
          "internalType": "bool",
          "name": "",
          "type": "bool"
        }
      ],
      "stateMutability": "view",
      "type": "function"
    },
    {
      "inputs": [
        {
          "internalType": "address",
          "name": "",
          "type": "address"
        }
      ],
      "name": "isVoter",
      "outputs": [
        {
          "internalType": "bool",
          "name": "",
          "type": "bool"
        }
      ],
      "stateMutability": "view",
      "type": "function"
    },
    {
      "inputs": [
        {
          "internalType": "string",
          "name": "_name",
          "type": "string"
        },
        {
          "internalType": "string",
          "name": "_cccd",
          "type": "string"
        },
        {
          "internalType": "string",
          "name": "_voterAddress",
          "type": "string"
        },
        {
          "internalType": "uint256",
          "name": "_birthDate",
          "type": "uint256"
        }
      ],
      "name": "registerVoter",
      "outputs": [],
      "stateMutability": "nonpayable",
      "type": "function"
    },
    {
      "inputs": [
        {
          "internalType": "address",
          "name": "_adminAddress",
          "type": "address"
        }
      ],
      "name": "removeAdmin",
      "outputs": [],
      "stateMutability": "nonpayable",
      "type": "function"
    },
    {
      "inputs": [
        {
          "internalType": "uint256",
          "name": "_electionId",
          "type": "uint256"
        },
        {
          "internalType": "uint256",
          "name": "_candidateId",
          "type": "uint256"
        }
      ],
      "name": "vote",
      "outputs": [],
      "stateMutability": "nonpayable",
      "type": "function"
    },
    {
      "inputs": [
        {
          "internalType": "address",
          "name": "",
          "type": "address"
        },
        {
          "internalType": "uint256",
          "name": "",
          "type": "uint256"
        }
      ],
      "name": "voterHistory",
      "outputs": [
        {
          "internalType": "uint256",
          "name": "electionId",
          "type": "uint256"
        },
        {
          "internalType": "uint256",
          "name": "candidateId",
          "type": "uint256"
        },
        {
          "internalType": "uint256",
          "name": "timestamp",
          "type": "uint256"
        }
      ],
      "stateMutability": "view",
      "type": "function"
    },
    {
      "inputs": [
        {
          "internalType": "address",
          "name": "",
          "type": "address"
        }
      ],
      "name": "voters",
      "outputs": [
        {
          "internalType": "string",
          "name": "name",
          "type": "string"
        },
        {
          "internalType": "string",
          "name": "cccd",
          "type": "string"
        },
        {
          "internalType": "string",
          "name": "voterAddress",
          "type": "string"
        },
        {
          "internalType": "uint256",
          "name": "birthDate",
          "type": "uint256"
        },
        {
          "internalType": "bool",
          "name": "isRegistered",
          "type": "bool"
        },
        {
          "internalType": "bool",
          "name": "hasVoted",
          "type": "bool"
        }
      ],
      "stateMutability": "view",
      "type": "function"
    }
  ],
  "bytecode": "0x608060405234801561001057600080fd5b50614a71806100206000396000f3fe608060405234801561001057600080fd5b50600436106101735760003560e01c80635e6fef01116100de5780639d71077711610097578063b384abef11610071578063b384abef146104dd578063be9f9e79146104f9578063d16856ca14610529578063d4f50f981461054557610173565b80639d71077714610442578063a3ec138d14610478578063a7771ee3146104ad57610173565b80635e6fef01146103665780638b7bf3eb1461039c5780638e46b33f146103ba578063923bee46146103d657806393b3ea4514610408578063997d28301461042457610173565b80632b7832b3116101305780632b7832b31461027557806336fa6eb91461029357806342545825146102af578063429b62e5146102df5780634840042c146103115780634bd464481461032d57610173565b806311117fc814610178578063111fd88b146101aa5780631785f53c146101db578063213785a0146101f757806324d7806c1461021557806326f6a2aa14610245575b600080fd5b610192600480360381019061018d919061308e565b61057a565b6040516101a1939291906131a7565b60405180910390f35b6101c460048036038101906101bf919061308e565b610669565b6040516101d29291906131e5565b60405180910390f35b6101f560048036038101906101f09190613241565b6107b4565b005b6101ff610ae7565b60405161020c919061327d565b60405180910390f35b61022f600480360381019061022a9190613241565b610af4565b60405161023c9190613298565b60405180910390f35b61025f600480360381019061025a919061308e565b610b14565b60405161026c919061327d565b60405180910390f35b61027d610b8a565b60405161028a919061327d565b60405180910390f35b6102ad60048036038101906102a891906133e8565b610b90565b005b6102c960048036038101906102c491906134a3565b610e09565b6040516102d69190613298565b60405180910390f35b6102f960048036038101906102f49190613241565b610eed565b604051610308939291906131a7565b60405180910390f35b61032b6004803603810190610326919061308e565b610fcc565b005b610347600480360381019061034291906134e3565b6113d8565b60405161035d9a99989796959493929190613523565b60405180910390f35b610380600480360381019061037b919061308e565b61198a565b60405161039397969594939291906135f7565b60405180910390f35b6103a4611b81565b6040516103b1919061327d565b60405180910390f35b6103d460048036038101906103cf919061367b565b611b8b565b005b6103f060048036038101906103eb91906134a3565b611ed0565b6040516103ff93929190613825565b60405180910390f35b610422600480360381019061041d919061385c565b611f17565b005b61042c612122565b604051610439919061327d565b60405180910390f35b61045c6004803603810190610457919061308e565b612128565b60405161046f97969594939291906135f7565b60405180910390f35b610492600480360381019061048d9190613241565b61238b565b6040516104a49695949392919061392b565b60405180910390f35b6104c760048036038101906104c29190613241565b612579565b6040516104d49190613298565b60405180910390f35b6104f760048036038101906104f291906134e3565b612599565b005b610513600480360381019061050e9190613241565b6128e7565b6040516105209190613aa1565b60405180910390f35b610543600480360381019061053e9190613ac3565b6129a3565b005b61055f600480360381019061055a9190613241565b612d7d565b6040516105719695949392919061392b565b60405180910390f35b6006818154811061058a57600080fd5b90600052602060002090600302016000915090508060000160009054906101000a900473ffffffffffffffffffffffffffffffffffffffff16908060010180546105d390613b4e565b80601f01602080910402602001604051908101604052809291908181526020018280546105ff90613b4e565b801561064c5780601f106106215761010080835404028352916020019161064c565b820191906000526020600020905b81548152906001019060200180831161062f57829003601f168201915b5050505050908060020160009054906101000a900460ff16905083565b6000606060068054905083106106b4576040517f08c379a00000000000000000000000000000000000000000000000000000000081526004016106ab90613bcb565b60405180910390fd5b600683815481106106c8576106c7613beb565b5b906000526020600020906003020160000160009054906101000a900473ffffffffffffffffffffffffffffffffffffffff166006848154811061070e5761070d613beb565b5b906000526020600020906003020160010180805461072b90613b4e565b80601f016020809104026020016040519081016040528092919081815260200182805461075790613b4e565b80156107a45780601f10610779576101008083540402835291602001916107a4565b820191906000526020600020905b81548152906001019060200180831161078757829003601f168201915b5050505050905091509150915091565b600360003373ffffffffffffffffffffffffffffffffffffffff1673ffffffffffffffffffffffffffffffffffffffff16815260200190815260200160002060009054906101000a900460ff16610840576040517f08c379a000000000000000000000000000000000000000000000000000000000815260040161083790613c8c565b60405180910390fd5b600360008273ffffffffffffffffffffffffffffffffffffffff1673ffffffffffffffffffffffffffffffffffffffff16815260200190815260200160002060009054906101000a900460ff166108cc576040517f08c379a00000000000000000000000000000000000000000000000000000000081526004016108c390613cf8565b60405180910390fd5b3373ffffffffffffffffffffffffffffffffffffffff168173ffffffffffffffffffffffffffffffffffffffff160361093a576040517f08c379a000000000000000000000000000000000000000000000000000000000815260040161093190613d64565b60405180910390fd5b6000600360008373ffffffffffffffffffffffffffffffffffffffff1673ffffffffffffffffffffffffffffffffffffffff16815260200190815260200160002060006101000a81548160ff0219169083151502179055506000600260008373ffffffffffffffffffffffffffffffffffffffff1673ffffffffffffffffffffffffffffffffffffffff16815260200190815260200160002060020160006101000a81548160ff02191690831515021790555060005b600680549050811015610acb578173ffffffffffffffffffffffffffffffffffffffff1660068281548110610a2857610a27613beb565b5b906000526020600020906003020160000160009054906101000a900473ffffffffffffffffffffffffffffffffffffffff1673ffffffffffffffffffffffffffffffffffffffff1603610ab857600060068281548110610a8b57610a8a613beb565b5b906000526020600020906003020160020160006101000a81548160ff021916908315150217905550610acb565b8080610ac390613db3565b9150506109f0565b5060086000815480929190610adf90613dfb565b919050555050565b6000600580549050905090565b60036020528060005260406000206000915054906101000a900460ff1681565b60006005805490508210610b5d576040517f08c379a0000000000000000000000000000000000000000000000000000000008152600401610b5490613e70565b60405180910390fd5b60058281548110610b7157610b70613beb565b5b9060005260206000209060080201600701549050919050565b60085481565b806321d59f0081610ba19190613e90565b421015610be3576040517f08c379a0000000000000000000000000000000000000000000000000000000008152600401610bda90613f10565b60405180910390fd5b600160003373ffffffffffffffffffffffffffffffffffffffff1673ffffffffffffffffffffffffffffffffffffffff16815260200190815260200160002060009054906101000a900460ff1615610c70576040517f08c379a0000000000000000000000000000000000000000000000000000000008152600401610c6790613f7c565b60405180910390fd5b6040518060c00160405280868152602001858152602001848152602001838152602001600115158152602001600015158152506000803373ffffffffffffffffffffffffffffffffffffffff1673ffffffffffffffffffffffffffffffffffffffff1681526020019081526020016000206000820151816000019081610cf69190614148565b506020820151816001019081610d0c9190614148565b506040820151816002019081610d229190614148565b506060820151816003015560808201518160040160006101000a81548160ff02191690831515021790555060a08201518160040160016101000a81548160ff02191690831515021790555090505060018060003373ffffffffffffffffffffffffffffffffffffffff1673ffffffffffffffffffffffffffffffffffffffff16815260200190815260200160002060006101000a81548160ff0219169083151502179055507f96ac7a421360a2bd773d747b2f64b40a916821c4906dbfdebf787c292e741f7d338686604051610dfa9392919061421a565b60405180910390a15050505050565b600080600090505b600460008573ffffffffffffffffffffffffffffffffffffffff1673ffffffffffffffffffffffffffffffffffffffff16815260200190815260200160002080549050811015610ee15782600460008673ffffffffffffffffffffffffffffffffffffffff1673ffffffffffffffffffffffffffffffffffffffff1681526020019081526020016000208281548110610ead57610eac613beb565b5b90600052602060002090600302016000015403610ece576001915050610ee7565b8080610ed990613db3565b915050610e11565b50600090505b92915050565b60026020528060005260406000206000915090508060000160009054906101000a900473ffffffffffffffffffffffffffffffffffffffff1690806001018054610f3690613b4e565b80601f0160208091040260200160405190810160405280929190818152602001828054610f6290613b4e565b8015610faf5780601f10610f8457610100808354040283529160200191610faf565b820191906000526020600020905b815481529060010190602001808311610f9257829003601f168201915b5050505050908060020160009054906101000a900460ff16905083565b600360003373ffffffffffffffffffffffffffffffffffffffff1673ffffffffffffffffffffffffffffffffffffffff16815260200190815260200160002060009054906101000a900460ff16611058576040517f08c379a000000000000000000000000000000000000000000000000000000000815260040161104f90613c8c565b60405180910390fd5b600580549050811061109f576040517f08c379a000000000000000000000000000000000000000000000000000000000815260040161109690613e70565b60405180910390fd5b600581815481106110b3576110b2613beb565b5b9060005260206000209060080201600301544211611106576040517f08c379a00000000000000000000000000000000000000000000000000000000081526004016110fd906142ab565b60405180910390fd5b6005818154811061111a57611119613beb565b5b906000526020600020906008020160050160009054906101000a900460ff1615611179576040517f08c379a000000000000000000000000000000000000000000000000000000000815260040161117090614317565b60405180910390fd5b60008060005b6005848154811061119357611192613beb565b5b9060005260206000209060080201600701548110156112845782600585815481106111c1576111c0613beb565b5b9060005260206000209060080201600601600083815260200190815260200160002060080154111561122a576005848154811061120157611200613beb565b5b906000526020600020906008020160060160008281526020019081526020016000206008015492505b6005848154811061123e5761123d613beb565b5b90600052602060002090600802016006016000828152602001908152602001600020600801548261126f9190613e90565b9150808061127c90613db3565b91505061117f565b5060005b6005848154811061129c5761129b613beb565b5b90600052602060002090600802016007015481101561135b5782600585815481106112ca576112c9613beb565b5b9060005260206000209060080201600601600083815260200190815260200160002060080154036113485760016005858154811061130b5761130a613beb565b5b9060005260206000209060080201600601600083815260200190815260200160002060090160006101000a81548160ff0219169083151502179055505b808061135390613db3565b915050611288565b5060016005848154811061137257611371613beb565b5b906000526020600020906008020160050160006101000a81548160ff0219169083151502179055507f7c504310e694a70c1882237ae282d8544b2aa30530be90d7584580adcab7781583826040516113cb929190614337565b60405180910390a1505050565b6060806060806060806060806000806005805490508c1061142e576040517f08c379a000000000000000000000000000000000000000000000000000000000815260040161142590613e70565b60405180910390fd5b60058c8154811061144257611441613beb565b5b9060005260206000209060080201600701548b10611495576040517f08c379a000000000000000000000000000000000000000000000000000000000815260040161148c906143ac565b60405180910390fd5b600060058d815481106114ab576114aa613beb565b5b906000526020600020906008020160060160008d81526020019081526020016000209050806000018160010182600201836003018460040185600501866006018760070188600801548960090160009054906101000a900460ff1689805461151290613b4e565b80601f016020809104026020016040519081016040528092919081815260200182805461153e90613b4e565b801561158b5780601f106115605761010080835404028352916020019161158b565b820191906000526020600020905b81548152906001019060200180831161156e57829003601f168201915b5050505050995088805461159e90613b4e565b80601f01602080910402602001604051908101604052809291908181526020018280546115ca90613b4e565b80156116175780601f106115ec57610100808354040283529160200191611617565b820191906000526020600020905b8154815290600101906020018083116115fa57829003601f168201915b5050505050985087805461162a90613b4e565b80601f016020809104026020016040519081016040528092919081815260200182805461165690613b4e565b80156116a35780601f10611678576101008083540402835291602001916116a3565b820191906000526020600020905b81548152906001019060200180831161168657829003601f168201915b505050505097508680546116b690613b4e565b80601f01602080910402602001604051908101604052809291908181526020018280546116e290613b4e565b801561172f5780601f106117045761010080835404028352916020019161172f565b820191906000526020600020905b81548152906001019060200180831161171257829003601f168201915b5050505050965085805461174290613b4e565b80601f016020809104026020016040519081016040528092919081815260200182805461176e90613b4e565b80156117bb5780601f10611790576101008083540402835291602001916117bb565b820191906000526020600020905b81548152906001019060200180831161179e57829003601f168201915b505050505095508480546117ce90613b4e565b80601f01602080910402602001604051908101604052809291908181526020018280546117fa90613b4e565b80156118475780601f1061181c57610100808354040283529160200191611847565b820191906000526020600020905b81548152906001019060200180831161182a57829003601f168201915b5050505050945083805461185a90613b4e565b80601f016020809104026020016040519081016040528092919081815260200182805461188690613b4e565b80156118d35780601f106118a8576101008083540402835291602001916118d3565b820191906000526020600020905b8154815290600101906020018083116118b657829003601f168201915b505050505093508280546118e690613b4e565b80601f016020809104026020016040519081016040528092919081815260200182805461191290613b4e565b801561195f5780601f106119345761010080835404028352916020019161195f565b820191906000526020600020905b81548152906001019060200180831161194257829003601f168201915b505050505092509a509a509a509a509a509a509a509a509a509a50509295989b9194979a5092959850565b6005818154811061199a57600080fd5b90600052602060002090600802016000915090508060000180546119bd90613b4e565b80601f01602080910402602001604051908101604052809291908181526020018280546119e990613b4e565b8015611a365780601f10611a0b57610100808354040283529160200191611a36565b820191906000526020600020905b815481529060010190602001808311611a1957829003601f168201915b505050505090806001018054611a4b90613b4e565b80601f0160208091040260200160405190810160405280929190818152602001828054611a7790613b4e565b8015611ac45780601f10611a9957610100808354040283529160200191611ac4565b820191906000526020600020905b815481529060010190602001808311611aa757829003601f168201915b505050505090806002015490806003015490806004018054611ae590613b4e565b80601f0160208091040260200160405190810160405280929190818152602001828054611b1190613b4e565b8015611b5e5780601f10611b3357610100808354040283529160200191611b5e565b820191906000526020600020905b815481529060010190602001808311611b4157829003601f168201915b5050505050908060050160009054906101000a900460ff16908060070154905087565b6000600854905090565b600360003373ffffffffffffffffffffffffffffffffffffffff1673ffffffffffffffffffffffffffffffffffffffff16815260200190815260200160002060009054906101000a900460ff16611c17576040517f08c379a0000000000000000000000000000000000000000000000000000000008152600401611c0e90613c8c565b60405180910390fd5b6005805490508910611c5e576040517f08c379a0000000000000000000000000000000000000000000000000000000008152600401611c5590613e70565b60405180910390fd5b60058981548110611c7257611c71613beb565b5b9060005260206000209060080201600201544210611cc5576040517f08c379a0000000000000000000000000000000000000000000000000000000008152600401611cbc9061443e565b60405180910390fd5b600060058a81548110611cdb57611cda613beb565b5b90600052602060002090600802016007015490506040518061014001604052808a8152602001898152602001888152602001878152602001868152602001858152602001848152602001838152602001600081526020016000151581525060058b81548110611d4d57611d4c613beb565b5b906000526020600020906008020160060160008381526020019081526020016000206000820151816000019081611d849190614148565b506020820151816001019081611d9a9190614148565b506040820151816002019081611db09190614148565b506060820151816003019081611dc69190614148565b506080820151816004019081611ddc9190614148565b5060a0820151816005019081611df29190614148565b5060c0820151816006019081611e089190614148565b5060e0820151816007019081611e1e9190614148565b5061010082015181600801556101208201518160090160006101000a81548160ff02191690831515021790555090505060058a81548110611e6257611e61613beb565b5b90600052602060002090600802016007016000815480929190611e8490613db3565b91905055507fed8911b3df733b7d5f75724158e54478ea12e30f49c9d31b5261879f5b76586f8a828b604051611ebc9392919061445e565b60405180910390a150505050505050505050565b60046020528160005260406000208181548110611eec57600080fd5b9060005260206000209060030201600091509150508060000154908060010154908060020154905083565b600360003373ffffffffffffffffffffffffffffffffffffffff1673ffffffffffffffffffffffffffffffffffffffff16815260200190815260200160002060009054906101000a900460ff16611fa3576040517f08c379a0000000000000000000000000000000000000000000000000000000008152600401611f9a90613c8c565b60405180910390fd5b428311611fe5576040517f08c379a0000000000000000000000000000000000000000000000000000000008152600401611fdc9061450e565b60405180910390fd5b828211612027576040517f08c379a000000000000000000000000000000000000000000000000000000000815260040161201e906145a0565b60405180910390fd5b60006005805490509050600060056001816001815401808255809150500390600052602060002090600802019050868160000190816120669190614148565b50858160010190816120789190614148565b508481600201819055508381600301819055508281600401908161209c9190614148565b5060008160050160006101000a81548160ff02191690831515021790555060008160070181905550600760008154809291906120d790613db3565b91905055507fe7a0aae5d733e07e246dea86213a1ac1b0aa8554bde889bb75c12752f44e53d98288878760405161211194939291906145c0565b60405180910390a150505050505050565b60075481565b6060806000806060600080600580549050881061217a576040517f08c379a000000000000000000000000000000000000000000000000000000000815260040161217190613e70565b60405180910390fd5b6000600589815481106121905761218f613beb565b5b90600052602060002090600802019050806000018160010182600201548360030154846004018560050160009054906101000a900460ff1686600701548680546121d990613b4e565b80601f016020809104026020016040519081016040528092919081815260200182805461220590613b4e565b80156122525780601f1061222757610100808354040283529160200191612252565b820191906000526020600020905b81548152906001019060200180831161223557829003601f168201915b5050505050965085805461226590613b4e565b80601f016020809104026020016040519081016040528092919081815260200182805461229190613b4e565b80156122de5780601f106122b3576101008083540402835291602001916122de565b820191906000526020600020905b8154815290600101906020018083116122c157829003601f168201915b505050505095508280546122f190613b4e565b80601f016020809104026020016040519081016040528092919081815260200182805461231d90613b4e565b801561236a5780601f1061233f5761010080835404028352916020019161236a565b820191906000526020600020905b81548152906001019060200180831161234d57829003601f168201915b50505050509250975097509750975097509750975050919395979092949650565b60006020528060005260406000206000915090508060000180546123ae90613b4e565b80601f01602080910402602001604051908101604052809291908181526020018280546123da90613b4e565b80156124275780601f106123fc57610100808354040283529160200191612427565b820191906000526020600020905b81548152906001019060200180831161240a57829003601f168201915b50505050509080600101805461243c90613b4e565b80601f016020809104026020016040519081016040528092919081815260200182805461246890613b4e565b80156124b55780601f1061248a576101008083540402835291602001916124b5565b820191906000526020600020905b81548152906001019060200180831161249857829003601f168201915b5050505050908060020180546124ca90613b4e565b80601f01602080910402602001604051908101604052809291908181526020018280546124f690613b4e565b80156125435780601f1061251857610100808354040283529160200191612543565b820191906000526020600020905b81548152906001019060200180831161252657829003601f168201915b5050505050908060030154908060040160009054906101000a900460ff16908060040160019054906101000a900460ff16905086565b60016020528060005260406000206000915054906101000a900460ff1681565b600160003373ffffffffffffffffffffffffffffffffffffffff1673ffffffffffffffffffffffffffffffffffffffff16815260200190815260200160002060009054906101000a900460ff16612625576040517f08c379a000000000000000000000000000000000000000000000000000000000815260040161261c90614658565b60405180910390fd5b600580549050821061266c576040517f08c379a000000000000000000000000000000000000000000000000000000000815260040161266390613e70565b60405180910390fd5b600582815481106126805761267f613beb565b5b90600052602060002090600802016007015481106126d3576040517f08c379a00000000000000000000000000000000000000000000000000000000081526004016126ca906143ac565b60405180910390fd5b6126dd3383610e09565b1561271d576040517f08c379a0000000000000000000000000000000000000000000000000000000008152600401612714906146ea565b60405180910390fd5b6005828154811061273157612730613beb565b5b906000526020600020906008020160020154421015801561277757506005828154811061276157612760613beb565b5b9060005260206000209060080201600301544211155b6127b6576040517f08c379a00000000000000000000000000000000000000000000000000000000081526004016127ad9061477c565b60405180910390fd5b600582815481106127ca576127c9613beb565b5b90600052602060002090600802016006016000828152602001908152602001600020600801600081548092919061280090613db3565b9190505550600460003373ffffffffffffffffffffffffffffffffffffffff1673ffffffffffffffffffffffffffffffffffffffff168152602001908152602001600020604051806060016040528084815260200183815260200142815250908060018154018082558091505060019003906000526020600020906003020160009091909190915060008201518160000155602082015181600101556040820151816002015550507fea66f58e474bc09f580000e81f31b334d171db387d0c6098ba47bd897741679b3383836040516128db9392919061479c565b60405180910390a15050565b6060600460008373ffffffffffffffffffffffffffffffffffffffff1673ffffffffffffffffffffffffffffffffffffffff168152602001908152602001600020805480602002602001604051908101604052809291908181526020016000905b828210156129985783829060005260206000209060030201604051806060016040529081600082015481526020016001820154815260200160028201548152505081526020019060010190612948565b505050509050919050565b60006008541115612a3b57600360003373ffffffffffffffffffffffffffffffffffffffff1673ffffffffffffffffffffffffffffffffffffffff16815260200190815260200160002060009054906101000a900460ff16612a3a576040517f08c379a0000000000000000000000000000000000000000000000000000000008152600401612a3190614845565b60405180910390fd5b5b600360008373ffffffffffffffffffffffffffffffffffffffff1673ffffffffffffffffffffffffffffffffffffffff16815260200190815260200160002060009054906101000a900460ff1615612ac8576040517f08c379a0000000000000000000000000000000000000000000000000000000008152600401612abf906148b1565b60405180910390fd5b60405180606001604052808373ffffffffffffffffffffffffffffffffffffffff16815260200182815260200160011515815250600260008473ffffffffffffffffffffffffffffffffffffffff1673ffffffffffffffffffffffffffffffffffffffff16815260200190815260200160002060008201518160000160006101000a81548173ffffffffffffffffffffffffffffffffffffffff021916908373ffffffffffffffffffffffffffffffffffffffff1602179055506020820151816001019081612b979190614148565b5060408201518160020160006101000a81548160ff0219169083151502179055509050506001600360008473ffffffffffffffffffffffffffffffffffffffff1673ffffffffffffffffffffffffffffffffffffffff16815260200190815260200160002060006101000a81548160ff0219169083151502179055506006600260008473ffffffffffffffffffffffffffffffffffffffff1673ffffffffffffffffffffffffffffffffffffffff16815260200190815260200160002090806001815401808255809150506001900390600052602060002090600302016000909190919091506000820160009054906101000a900473ffffffffffffffffffffffffffffffffffffffff168160000160006101000a81548173ffffffffffffffffffffffffffffffffffffffff021916908373ffffffffffffffffffffffffffffffffffffffff16021790555060018201816001019081612cf891906148e7565b506002820160009054906101000a900460ff168160020160006101000a81548160ff021916908315150217905550505060086000815480929190612d3b90613db3565b91905055507fad2de57e428a5b15cba277461702e38f0770c02824dec442a797195811d7a5918282604051612d719291906131e5565b60405180910390a15050565b60608060606000806000600160008873ffffffffffffffffffffffffffffffffffffffff1673ffffffffffffffffffffffffffffffffffffffff16815260200190815260200160002060009054906101000a900460ff16612e13576040517f08c379a0000000000000000000000000000000000000000000000000000000008152600401612e0a90614a1b565b60405180910390fd5b60008060008973ffffffffffffffffffffffffffffffffffffffff1673ffffffffffffffffffffffffffffffffffffffff168152602001908152602001600020905080600001816001018260020183600301548460040160009054906101000a900460ff168560040160019054906101000a900460ff16858054612e9690613b4e565b80601f0160208091040260200160405190810160405280929190818152602001828054612ec290613b4e565b8015612f0f5780601f10612ee457610100808354040283529160200191612f0f565b820191906000526020600020905b815481529060010190602001808311612ef257829003601f168201915b50505050509550848054612f2290613b4e565b80601f0160208091040260200160405190810160405280929190818152602001828054612f4e90613b4e565b8015612f9b5780601f10612f7057610100808354040283529160200191612f9b565b820191906000526020600020905b815481529060010190602001808311612f7e57829003601f168201915b50505050509450838054612fae90613b4e565b80601f0160208091040260200160405190810160405280929190818152602001828054612fda90613b4e565b80156130275780601f10612ffc57610100808354040283529160200191613027565b820191906000526020600020905b81548152906001019060200180831161300a57829003601f168201915b505050505093509650965096509650965096505091939550919395565b6000604051905090565b600080fd5b600080fd5b6000819050919050565b61306b81613058565b811461307657600080fd5b50565b60008135905061308881613062565b92915050565b6000602082840312156130a4576130a361304e565b5b60006130b284828501613079565b91505092915050565b600073ffffffffffffffffffffffffffffffffffffffff82169050919050565b60006130e6826130bb565b9050919050565b6130f6816130db565b82525050565b600081519050919050565b600082825260208201905092915050565b60005b8381101561313657808201518184015260208101905061311b565b60008484015250505050565b6000601f19601f8301169050919050565b600061315e826130fc565b6131688185613107565b9350613178818560208601613118565b61318181613142565b840191505092915050565b60008115159050919050565b6131a18161318c565b82525050565b60006060820190506131bc60008301866130ed565b81810360208301526131ce8185613153565b90506131dd6040830184613198565b949350505050565b60006040820190506131fa60008301856130ed565b818103602083015261320c8184613153565b90509392505050565b61321e816130db565b811461322957600080fd5b50565b60008135905061323b81613215565b92915050565b6000602082840312156132575761325661304e565b5b60006132658482850161322c565b91505092915050565b61327781613058565b82525050565b6000602082019050613292600083018461326e565b92915050565b60006020820190506132ad6000830184613198565b92915050565b600080fd5b600080fd5b7f4e487b7100000000000000000000000000000000000000000000000000000000600052604160045260246000fd5b6132f582613142565b810181811067ffffffffffffffff82111715613314576133136132bd565b5b80604052505050565b6000613327613044565b905061333382826132ec565b919050565b600067ffffffffffffffff821115613353576133526132bd565b5b61335c82613142565b9050602081019050919050565b82818337600083830152505050565b600061338b61338684613338565b61331d565b9050828152602081018484840111156133a7576133a66132b8565b5b6133b2848285613369565b509392505050565b600082601f8301126133cf576133ce6132b3565b5b81356133df848260208601613378565b91505092915050565b600080600080608085870312156134025761340161304e565b5b600085013567ffffffffffffffff8111156134205761341f613053565b5b61342c878288016133ba565b945050602085013567ffffffffffffffff81111561344d5761344c613053565b5b613459878288016133ba565b935050604085013567ffffffffffffffff81111561347a57613479613053565b5b613486878288016133ba565b925050606061349787828801613079565b91505092959194509250565b600080604083850312156134ba576134b961304e565b5b60006134c88582860161322c565b92505060206134d985828601613079565b9150509250929050565b600080604083850312156134fa576134f961304e565b5b600061350885828601613079565b925050602061351985828601613079565b9150509250929050565b600061014082019050818103600083015261353e818d613153565b90508181036020830152613552818c613153565b90508181036040830152613566818b613153565b9050818103606083015261357a818a613153565b9050818103608083015261358e8189613153565b905081810360a08301526135a28188613153565b905081810360c08301526135b68187613153565b905081810360e08301526135ca8186613153565b90506135da61010083018561326e565b6135e8610120830184613198565b9b9a5050505050505050505050565b600060e0820190508181036000830152613611818a613153565b905081810360208301526136258189613153565b9050613634604083018861326e565b613641606083018761326e565b81810360808301526136538186613153565b905061366260a0830185613198565b61366f60c083018461326e565b98975050505050505050565b60008060008060008060008060006101208a8c03121561369e5761369d61304e565b5b60006136ac8c828d01613079565b99505060208a013567ffffffffffffffff8111156136cd576136cc613053565b5b6136d98c828d016133ba565b98505060408a013567ffffffffffffffff8111156136fa576136f9613053565b5b6137068c828d016133ba565b97505060608a013567ffffffffffffffff81111561372757613726613053565b5b6137338c828d016133ba565b96505060808a013567ffffffffffffffff81111561375457613753613053565b5b6137608c828d016133ba565b95505060a08a013567ffffffffffffffff81111561378157613780613053565b5b61378d8c828d016133ba565b94505060c08a013567ffffffffffffffff8111156137ae576137ad613053565b5b6137ba8c828d016133ba565b93505060e08a013567ffffffffffffffff8111156137db576137da613053565b5b6137e78c828d016133ba565b9250506101008a013567ffffffffffffffff81111561380957613808613053565b5b6138158c828d016133ba565b9150509295985092959850929598565b600060608201905061383a600083018661326e565b613847602083018561326e565b613854604083018461326e565b949350505050565b600080600080600060a086880312156138785761387761304e565b5b600086013567ffffffffffffffff81111561389657613895613053565b5b6138a2888289016133ba565b955050602086013567ffffffffffffffff8111156138c3576138c2613053565b5b6138cf888289016133ba565b94505060406138e088828901613079565b93505060606138f188828901613079565b925050608086013567ffffffffffffffff81111561391257613911613053565b5b61391e888289016133ba565b9150509295509295909350565b600060c08201905081810360008301526139458189613153565b905081810360208301526139598188613153565b9050818103604083015261396d8187613153565b905061397c606083018661326e565b6139896080830185613198565b61399660a0830184613198565b979650505050505050565b600081519050919050565b600082825260208201905092915050565b6000819050602082019050919050565b6139d681613058565b82525050565b6060820160008201516139f260008501826139cd565b506020820151613a0560208501826139cd565b506040820151613a1860408501826139cd565b50505050565b6000613a2a83836139dc565b60608301905092915050565b6000602082019050919050565b6000613a4e826139a1565b613a5881856139ac565b9350613a63836139bd565b8060005b83811015613a94578151613a7b8882613a1e565b9750613a8683613a36565b925050600181019050613a67565b5085935050505092915050565b60006020820190508181036000830152613abb8184613a43565b905092915050565b60008060408385031215613ada57613ad961304e565b5b6000613ae88582860161322c565b925050602083013567ffffffffffffffff811115613b0957613b08613053565b5b613b15858286016133ba565b9150509250929050565b7f4e487b7100000000000000000000000000000000000000000000000000000000600052602260045260246000fd5b60006002820490506001821680613b6657607f821691505b602082108103613b7957613b78613b1f565b5b50919050565b7f43686920736f2061646d696e206b686f6e6720686f70206c6500000000000000600082015250565b6000613bb5601983613107565b9150613bc082613b7f565b602082019050919050565b60006020820190508181036000830152613be481613ba8565b9050919050565b7f4e487b7100000000000000000000000000000000000000000000000000000000600052603260045260246000fd5b7f4368692061646d696e206d6f6920636f207468652074687563206869656e206860008201527f616e6820646f6e67206e61790000000000000000000000000000000000000000602082015250565b6000613c76602c83613107565b9150613c8182613c1a565b604082019050919050565b60006020820190508181036000830152613ca581613c69565b9050919050565b7f44696120636869206e6179206b686f6e672070686169206c612061646d696e00600082015250565b6000613ce2601f83613107565b9150613ced82613cac565b602082019050919050565b60006020820190508181036000830152613d1181613cd5565b9050919050565b7f42616e206b686f6e672074686520786f61206368696e68206d696e6800000000600082015250565b6000613d4e601c83613107565b9150613d5982613d18565b602082019050919050565b60006020820190508181036000830152613d7d81613d41565b9050919050565b7f4e487b7100000000000000000000000000000000000000000000000000000000600052601160045260246000fd5b6000613dbe82613058565b91507fffffffffffffffffffffffffffffffffffffffffffffffffffffffffffffffff8203613df057613def613d84565b5b600182019050919050565b6000613e0682613058565b915060008203613e1957613e18613d84565b5b600182039050919050565b7f43756f6320626175206375206b686f6e6720746f6e2074616900000000000000600082015250565b6000613e5a601983613107565b9150613e6582613e24565b602082019050919050565b60006020820190508181036000830152613e8981613e4d565b9050919050565b6000613e9b82613058565b9150613ea683613058565b9250828201905080821115613ebe57613ebd613d84565b5b92915050565b7f42616e20706861692064752031382074756f692074726f206c656e0000000000600082015250565b6000613efa601b83613107565b9150613f0582613ec4565b602082019050919050565b60006020820190508181036000830152613f2981613eed565b9050919050565b7f42616e2064612064616e67206b7920726f690000000000000000000000000000600082015250565b6000613f66601283613107565b9150613f7182613f30565b602082019050919050565b60006020820190508181036000830152613f9581613f59565b9050919050565b60008190508160005260206000209050919050565b60006020601f8301049050919050565b600082821b905092915050565b600060088302613ffe7fffffffffffffffffffffffffffffffffffffffffffffffffffffffffffffffff82613fc1565b6140088683613fc1565b95508019841693508086168417925050509392505050565b6000819050919050565b600061404561404061403b84613058565b614020565b613058565b9050919050565b6000819050919050565b61405f8361402a565b61407361406b8261404c565b848454613fce565b825550505050565b600090565b61408861407b565b614093818484614056565b505050565b5b818110156140b7576140ac600082614080565b600181019050614099565b5050565b601f8211156140fc576140cd81613f9c565b6140d684613fb1565b810160208510156140e5578190505b6140f96140f185613fb1565b830182614098565b50505b505050565b600082821c905092915050565b600061411f60001984600802614101565b1980831691505092915050565b6000614138838361410e565b9150826002028217905092915050565b614151826130fc565b67ffffffffffffffff81111561416a576141696132bd565b5b6141748254613b4e565b61417f8282856140bb565b600060209050601f8311600181146141b257600084156141a0578287015190505b6141aa858261412c565b865550614212565b601f1984166141c086613f9c565b60005b828110156141e8578489015182556001820191506020850194506020810190506141c3565b868310156142055784890151614201601f89168261410e565b8355505b6001600288020188555050505b505050505050565b600060608201905061422f60008301866130ed565b81810360208301526142418185613153565b905081810360408301526142558184613153565b9050949350505050565b7f43756f63206261752063752063687561206b6574207468756300000000000000600082015250565b6000614295601983613107565b91506142a08261425f565b602082019050919050565b600060208201905081810360008301526142c481614288565b9050919050565b7f43756f632062617520637520646120686f616e207468616e6800000000000000600082015250565b6000614301601983613107565b915061430c826142cb565b602082019050919050565b60006020820190508181036000830152614330816142f4565b9050919050565b600060408201905061434c600083018561326e565b614359602083018461326e565b9392505050565b7f556e67206375207669656e206b686f6e6720746f6e2074616900000000000000600082015250565b6000614396601983613107565b91506143a182614360565b602082019050919050565b600060208201905081810360008301526143c581614389565b9050919050565b7f43756f632062617520637520646120626174206461752c206b686f6e6720746860008201527f65207468656d20756e67206375207669656e0000000000000000000000000000602082015250565b6000614428603283613107565b9150614433826143cc565b604082019050919050565b600060208201905081810360008301526144578161441b565b9050919050565b6000606082019050614473600083018661326e565b614480602083018561326e565b81810360408301526144928184613153565b9050949350505050565b7f54686f69206769616e206261742064617520706861692074726f6e672074756f60008201527f6e67206c61690000000000000000000000000000000000000000000000000000602082015250565b60006144f8602683613107565b91506145038261449c565b604082019050919050565b60006020820190508181036000830152614527816144eb565b9050919050565b7f54686f69206769616e206b657420746875632070686169207361752074686f6960008201527f206769616e206261742064617500000000000000000000000000000000000000602082015250565b600061458a602d83613107565b91506145958261452e565b604082019050919050565b600060208201905081810360008301526145b98161457d565b9050919050565b60006080820190506145d5600083018761326e565b81810360208301526145e78186613153565b90506145f6604083018561326e565b614603606083018461326e565b95945050505050565b7f42616e20636875612064616e67206b79206c616d206375207472690000000000600082015250565b6000614642601b83613107565b915061464d8261460c565b602082019050919050565b6000602082019050818103600083015261467181614635565b9050919050565b7f42616e20646120626f2070686965752063686f2063756f63206261752063752060008201527f6e617920726f6900000000000000000000000000000000000000000000000000602082015250565b60006146d4602783613107565b91506146df82614678565b604082019050919050565b60006020820190508181036000830152614703816146c7565b9050919050565b7f43756f6320626175206375206b686f6e672074726f6e672074686f692067696160008201527f6e206469656e2072610000000000000000000000000000000000000000000000602082015250565b6000614766602983613107565b91506147718261470a565b604082019050919050565b6000602082019050818103600083015261479581614759565b9050919050565b60006060820190506147b160008301866130ed565b6147be602083018561326e565b6147cb604083018461326e565b949350505050565b7f4368692061646d696e206d6f6920636f20746865207468656d2061646d696e2060008201527f6d6f690000000000000000000000000000000000000000000000000000000000602082015250565b600061482f602383613107565b915061483a826147d3565b604082019050919050565b6000602082019050818103600083015261485e81614822565b9050919050565b7f44696120636869206e6179206461206c612061646d696e000000000000000000600082015250565b600061489b601783613107565b91506148a682614865565b602082019050919050565b600060208201905081810360008301526148ca8161488e565b9050919050565b6000815490506148e081613b4e565b9050919050565b8181036148f55750506149cd565b6148fe826148d1565b67ffffffffffffffff811115614917576149166132bd565b5b6149218254613b4e565b61492c8282856140bb565b6000601f83116001811461495b5760008415614949578287015490505b614953858261412c565b8655506149c6565b601f19841661496987613f9c565b965061497486613f9c565b60005b8281101561499c57848901548255600182019150600185019450602081019050614977565b868310156149b957848901546149b5601f89168261410e565b8355505b6001600288020188555050505b5050505050505b565b7f437520747269206b686f6e6720746f6e20746169000000000000000000000000600082015250565b6000614a05601483613107565b9150614a10826149cf565b602082019050919050565b60006020820190508181036000830152614a34816149f8565b905091905056fea264697066735822122027f76ca358377434240e18fdd1aa789dc1e234a70cd0753821b67fe815cdc9d964736f6c63430008130033",
  "linkReferences": {},
  "deployedLinkReferences": {}
}